{
  "contractName": "Colour",
  "abi": [
    {
      "inputs": [],
      "stateMutability": "nonpayable",
      "type": "constructor"
    },
    {
      "anonymous": false,
      "inputs": [
        {
          "indexed": true,
          "internalType": "address",
          "name": "owner",
          "type": "address"
        },
        {
          "indexed": true,
          "internalType": "address",
          "name": "approved",
          "type": "address"
        },
        {
          "indexed": true,
          "internalType": "uint256",
          "name": "tokenId",
          "type": "uint256"
        }
      ],
      "name": "Approval",
      "type": "event"
    },
    {
      "anonymous": false,
      "inputs": [
        {
          "indexed": true,
          "internalType": "address",
          "name": "owner",
          "type": "address"
        },
        {
          "indexed": true,
          "internalType": "address",
          "name": "operator",
          "type": "address"
        },
        {
          "indexed": false,
          "internalType": "bool",
          "name": "approved",
          "type": "bool"
        }
      ],
      "name": "ApprovalForAll",
      "type": "event"
    },
    {
      "anonymous": false,
      "inputs": [
        {
          "indexed": true,
          "internalType": "address",
          "name": "from",
          "type": "address"
        },
        {
          "indexed": true,
          "internalType": "address",
          "name": "to",
          "type": "address"
        },
        {
          "indexed": true,
          "internalType": "uint256",
          "name": "tokenId",
          "type": "uint256"
        }
      ],
      "name": "Transfer",
      "type": "event"
    },
    {
      "inputs": [
        {
          "internalType": "address",
          "name": "to",
          "type": "address"
        },
        {
          "internalType": "uint256",
          "name": "tokenId",
          "type": "uint256"
        }
      ],
      "name": "approve",
      "outputs": [],
      "stateMutability": "nonpayable",
      "type": "function"
    },
    {
      "inputs": [
        {
          "internalType": "address",
          "name": "owner",
          "type": "address"
        }
      ],
      "name": "balanceOf",
      "outputs": [
        {
          "internalType": "uint256",
          "name": "",
          "type": "uint256"
        }
      ],
      "stateMutability": "view",
      "type": "function",
      "constant": true
    },
    {
      "inputs": [
        {
          "internalType": "uint256",
          "name": "tokenId",
          "type": "uint256"
        }
      ],
      "name": "getApproved",
      "outputs": [
        {
          "internalType": "address",
          "name": "",
          "type": "address"
        }
      ],
      "stateMutability": "view",
      "type": "function",
      "constant": true
    },
    {
      "inputs": [
        {
          "internalType": "address",
          "name": "owner",
          "type": "address"
        },
        {
          "internalType": "address",
          "name": "operator",
          "type": "address"
        }
      ],
      "name": "isApprovedForAll",
      "outputs": [
        {
          "internalType": "bool",
          "name": "",
          "type": "bool"
        }
      ],
      "stateMutability": "view",
      "type": "function",
      "constant": true
    },
    {
      "inputs": [],
      "name": "name",
      "outputs": [
        {
          "internalType": "string",
          "name": "",
          "type": "string"
        }
      ],
      "stateMutability": "view",
      "type": "function",
      "constant": true
    },
    {
      "inputs": [
        {
          "internalType": "uint256",
          "name": "tokenId",
          "type": "uint256"
        }
      ],
      "name": "ownerOf",
      "outputs": [
        {
          "internalType": "address",
          "name": "",
          "type": "address"
        }
      ],
      "stateMutability": "view",
      "type": "function",
      "constant": true
    },
    {
      "inputs": [
        {
          "internalType": "address",
          "name": "from",
          "type": "address"
        },
        {
          "internalType": "address",
          "name": "to",
          "type": "address"
        },
        {
          "internalType": "uint256",
          "name": "tokenId",
          "type": "uint256"
        }
      ],
      "name": "safeTransferFrom",
      "outputs": [],
      "stateMutability": "nonpayable",
      "type": "function"
    },
    {
      "inputs": [
        {
          "internalType": "address",
          "name": "from",
          "type": "address"
        },
        {
          "internalType": "address",
          "name": "to",
          "type": "address"
        },
        {
          "internalType": "uint256",
          "name": "tokenId",
          "type": "uint256"
        },
        {
          "internalType": "bytes",
          "name": "_data",
          "type": "bytes"
        }
      ],
      "name": "safeTransferFrom",
      "outputs": [],
      "stateMutability": "nonpayable",
      "type": "function"
    },
    {
      "inputs": [
        {
          "internalType": "address",
          "name": "operator",
          "type": "address"
        },
        {
          "internalType": "bool",
          "name": "approved",
          "type": "bool"
        }
      ],
      "name": "setApprovalForAll",
      "outputs": [],
      "stateMutability": "nonpayable",
      "type": "function"
    },
    {
      "inputs": [
        {
          "internalType": "bytes4",
          "name": "interfaceId",
          "type": "bytes4"
        }
      ],
      "name": "supportsInterface",
      "outputs": [
        {
          "internalType": "bool",
          "name": "",
          "type": "bool"
        }
      ],
      "stateMutability": "view",
      "type": "function",
      "constant": true
    },
    {
      "inputs": [],
      "name": "symbol",
      "outputs": [
        {
          "internalType": "string",
          "name": "",
          "type": "string"
        }
      ],
      "stateMutability": "view",
      "type": "function",
      "constant": true
    },
    {
      "inputs": [
        {
          "internalType": "uint256",
          "name": "index",
          "type": "uint256"
        }
      ],
      "name": "tokenByIndex",
      "outputs": [
        {
          "internalType": "uint256",
          "name": "",
          "type": "uint256"
        }
      ],
      "stateMutability": "view",
      "type": "function",
      "constant": true
    },
    {
      "inputs": [
        {
          "internalType": "address",
          "name": "owner",
          "type": "address"
        },
        {
          "internalType": "uint256",
          "name": "index",
          "type": "uint256"
        }
      ],
      "name": "tokenOfOwnerByIndex",
      "outputs": [
        {
          "internalType": "uint256",
          "name": "",
          "type": "uint256"
        }
      ],
      "stateMutability": "view",
      "type": "function",
      "constant": true
    },
    {
      "inputs": [
        {
          "internalType": "uint256",
          "name": "tokenId",
          "type": "uint256"
        }
      ],
      "name": "tokenURI",
      "outputs": [
        {
          "internalType": "string",
          "name": "",
          "type": "string"
        }
      ],
      "stateMutability": "view",
      "type": "function",
      "constant": true
    },
    {
      "inputs": [],
      "name": "totalSupply",
      "outputs": [
        {
          "internalType": "uint256",
          "name": "",
          "type": "uint256"
        }
      ],
      "stateMutability": "view",
      "type": "function",
      "constant": true
    },
    {
      "inputs": [
        {
          "internalType": "address",
          "name": "from",
          "type": "address"
        },
        {
          "internalType": "address",
          "name": "to",
          "type": "address"
        },
        {
          "internalType": "uint256",
          "name": "tokenId",
          "type": "uint256"
        }
      ],
      "name": "transferFrom",
      "outputs": [],
      "stateMutability": "nonpayable",
      "type": "function"
    },
    {
      "inputs": [],
      "name": "getColours",
      "outputs": [
        {
          "internalType": "string[]",
          "name": "",
          "type": "string[]"
        }
      ],
      "stateMutability": "view",
      "type": "function",
      "constant": true
    },
    {
      "inputs": [
        {
          "internalType": "string",
          "name": "_colour",
          "type": "string"
        }
      ],
      "name": "mint",
      "outputs": [],
      "stateMutability": "nonpayable",
      "type": "function"
    }
  ],
  "bytecode": "0x60806040523480156200001157600080fd5b506040518060400160405280600681526020017f436f6c6f757200000000000000000000000000000000000000000000000000008152506040518060400160405280600681526020017f434f4c4f55520000000000000000000000000000000000000000000000000000815250816000908051906020019062000096929190620000b8565b508060019080519060200190620000af929190620000b8565b505050620001cd565b828054620000c69062000168565b90600052602060002090601f016020900481019282620000ea576000855562000136565b82601f106200010557805160ff191683800117855562000136565b8280016001018555821562000136579182015b828111156200013557825182559160200191906001019062000118565b5b50905062000145919062000149565b5090565b5b80821115620001645760008160009055506001016200014a565b5090565b600060028204905060018216806200018157607f821691505b602082108114156200019857620001976200019e565b5b50919050565b7f4e487b7100000000000000000000000000000000000000000000000000000000600052602260045260246000fd5b61332580620001dd6000396000f3fe608060405234801561001057600080fd5b50600436106101165760003560e01c806358506e90116100a2578063a22cb46511610071578063a22cb46514610307578063b88d4fde14610323578063c87b56dd1461033f578063d85d3d271461036f578063e985e9c51461038b57610116565b806358506e901461026b5780636352211e1461028957806370a08231146102b957806395d89b41146102e957610116565b806318160ddd116100e957806318160ddd146101b557806323b872dd146101d35780632f745c59146101ef57806342842e0e1461021f5780634f6ccce71461023b57610116565b806301ffc9a71461011b57806306fdde031461014b578063081812fc14610169578063095ea7b314610199575b600080fd5b6101356004803603810190610130919061224c565b6103bb565b604051610142919061278e565b60405180910390f35b610153610435565b60405161016091906127a9565b60405180910390f35b610183600480360381019061017e91906122df565b6104c7565b6040516101909190612705565b60405180910390f35b6101b360048036038101906101ae9190612210565b61054c565b005b6101bd610664565b6040516101ca91906129cb565b60405180910390f35b6101ed60048036038101906101e8919061210a565b610671565b005b61020960048036038101906102049190612210565b6106d1565b60405161021691906129cb565b60405180910390f35b6102396004803603810190610234919061210a565b610776565b005b610255600480360381019061025091906122df565b610796565b60405161026291906129cb565b60405180910390f35b61027361082d565b604051610280919061276c565b60405180910390f35b6102a3600480360381019061029e91906122df565b610906565b6040516102b09190612705565b60405180910390f35b6102d360048036038101906102ce91906120a5565b6109b8565b6040516102e091906129cb565b60405180910390f35b6102f1610a70565b6040516102fe91906127a9565b60405180910390f35b610321600480360381019061031c91906121d4565b610b02565b005b61033d60048036038101906103389190612159565b610c83565b005b610359600480360381019061035491906122df565b610ce5565b60405161036691906127a9565b60405180910390f35b6103896004803603810190610384919061229e565b610d8c565b005b6103a560048036038101906103a091906120ce565b610e59565b6040516103b2919061278e565b60405180910390f35b60007f780e9d63000000000000000000000000000000000000000000000000000000007bffffffffffffffffffffffffffffffffffffffffffffffffffffffff1916827bffffffffffffffffffffffffffffffffffffffffffffffffffffffff1916148061042e575061042d82610eed565b5b9050919050565b60606000805461044490612c6b565b80601f016020809104026020016040519081016040528092919081815260200182805461047090612c6b565b80156104bd5780601f10610492576101008083540402835291602001916104bd565b820191906000526020600020905b8154815290600101906020018083116104a057829003601f168201915b5050505050905090565b60006104d282610fcf565b610511576040517f08c379a00000000000000000000000000000000000000000000000000000000081526004016105089061290b565b60405180910390fd5b6004600083815260200190815260200160002060009054906101000a900473ffffffffffffffffffffffffffffffffffffffff169050919050565b600061055782610906565b90508073ffffffffffffffffffffffffffffffffffffffff168373ffffffffffffffffffffffffffffffffffffffff1614156105c8576040517f08c379a00000000000000000000000000000000000000000000000000000000081526004016105bf9061296b565b60405180910390fd5b8073ffffffffffffffffffffffffffffffffffffffff166105e761103b565b73ffffffffffffffffffffffffffffffffffffffff16148061061657506106158161061061103b565b610e59565b5b610655576040517f08c379a000000000000000000000000000000000000000000000000000000000815260040161064c9061288b565b60405180910390fd5b61065f8383611043565b505050565b6000600880549050905090565b61068261067c61103b565b826110fc565b6106c1576040517f08c379a00000000000000000000000000000000000000000000000000000000081526004016106b89061298b565b60405180910390fd5b6106cc8383836111da565b505050565b60006106dc836109b8565b821061071d576040517f08c379a0000000000000000000000000000000000000000000000000000000008152600401610714906127cb565b60405180910390fd5b600660008473ffffffffffffffffffffffffffffffffffffffff1673ffffffffffffffffffffffffffffffffffffffff168152602001908152602001600020600083815260200190815260200160002054905092915050565b61079183838360405180602001604052806000815250610c83565b505050565b60006107a0610664565b82106107e1576040517f08c379a00000000000000000000000000000000000000000000000000000000081526004016107d8906129ab565b60405180910390fd5b6008828154811061081b577f4e487b7100000000000000000000000000000000000000000000000000000000600052603260045260246000fd5b90600052602060002001549050919050565b6060600a805480602002602001604051908101604052809291908181526020016000905b828210156108fd57838290600052602060002001805461087090612c6b565b80601f016020809104026020016040519081016040528092919081815260200182805461089c90612c6b565b80156108e95780601f106108be576101008083540402835291602001916108e9565b820191906000526020600020905b8154815290600101906020018083116108cc57829003601f168201915b505050505081526020019060010190610851565b50505050905090565b6000806002600084815260200190815260200160002060009054906101000a900473ffffffffffffffffffffffffffffffffffffffff169050600073ffffffffffffffffffffffffffffffffffffffff168173ffffffffffffffffffffffffffffffffffffffff1614156109af576040517f08c379a00000000000000000000000000000000000000000000000000000000081526004016109a6906128cb565b60405180910390fd5b80915050919050565b60008073ffffffffffffffffffffffffffffffffffffffff168273ffffffffffffffffffffffffffffffffffffffff161415610a29576040517f08c379a0000000000000000000000000000000000000000000000000000000008152600401610a20906128ab565b60405180910390fd5b600360008373ffffffffffffffffffffffffffffffffffffffff1673ffffffffffffffffffffffffffffffffffffffff168152602001908152602001600020549050919050565b606060018054610a7f90612c6b565b80601f0160208091040260200160405190810160405280929190818152602001828054610aab90612c6b565b8015610af85780601f10610acd57610100808354040283529160200191610af8565b820191906000526020600020905b815481529060010190602001808311610adb57829003601f168201915b5050505050905090565b610b0a61103b565b73ffffffffffffffffffffffffffffffffffffffff168273ffffffffffffffffffffffffffffffffffffffff161415610b78576040517f08c379a0000000000000000000000000000000000000000000000000000000008152600401610b6f9061284b565b60405180910390fd5b8060056000610b8561103b565b73ffffffffffffffffffffffffffffffffffffffff1673ffffffffffffffffffffffffffffffffffffffff16815260200190815260200160002060008473ffffffffffffffffffffffffffffffffffffffff1673ffffffffffffffffffffffffffffffffffffffff16815260200190815260200160002060006101000a81548160ff0219169083151502179055508173ffffffffffffffffffffffffffffffffffffffff16610c3261103b565b73ffffffffffffffffffffffffffffffffffffffff167f17307eab39ab6107e8899845ad3d59bd9653f200f220920489ca2b5937696c3183604051610c77919061278e565b60405180910390a35050565b610c94610c8e61103b565b836110fc565b610cd3576040517f08c379a0000000000000000000000000000000000000000000000000000000008152600401610cca9061298b565b60405180910390fd5b610cdf84848484611436565b50505050565b6060610cf082610fcf565b610d2f576040517f08c379a0000000000000000000000000000000000000000000000000000000008152600401610d269061294b565b60405180910390fd5b6000610d39611492565b90506000815111610d595760405180602001604052806000815250610d84565b80610d63846114a9565b604051602001610d749291906126e1565b6040516020818303038152906040525b915050919050565b600b81604051610d9c91906126ca565b908152602001604051809103902060009054906101000a900460ff1615610dc257600080fd5b600a81908060018154018082558091505060019003906000526020600020016000909190919091509080519060200190610dfd929190611ec9565b5060006001600a80549050610e129190612b81565b9050610e1e3382611656565b6001600b83604051610e3091906126ca565b908152602001604051809103902060006101000a81548160ff0219169083151502179055505050565b6000600560008473ffffffffffffffffffffffffffffffffffffffff1673ffffffffffffffffffffffffffffffffffffffff16815260200190815260200160002060008373ffffffffffffffffffffffffffffffffffffffff1673ffffffffffffffffffffffffffffffffffffffff16815260200190815260200160002060009054906101000a900460ff16905092915050565b60007f80ac58cd000000000000000000000000000000000000000000000000000000007bffffffffffffffffffffffffffffffffffffffffffffffffffffffff1916827bffffffffffffffffffffffffffffffffffffffffffffffffffffffff19161480610fb857507f5b5e139f000000000000000000000000000000000000000000000000000000007bffffffffffffffffffffffffffffffffffffffffffffffffffffffff1916827bffffffffffffffffffffffffffffffffffffffffffffffffffffffff1916145b80610fc85750610fc782611824565b5b9050919050565b60008073ffffffffffffffffffffffffffffffffffffffff166002600084815260200190815260200160002060009054906101000a900473ffffffffffffffffffffffffffffffffffffffff1673ffffffffffffffffffffffffffffffffffffffff1614159050919050565b600033905090565b816004600083815260200190815260200160002060006101000a81548173ffffffffffffffffffffffffffffffffffffffff021916908373ffffffffffffffffffffffffffffffffffffffff160217905550808273ffffffffffffffffffffffffffffffffffffffff166110b683610906565b73ffffffffffffffffffffffffffffffffffffffff167f8c5be1e5ebec7d5bd14f71427d1e84f3dd0314c0f7b2291e5b200ac8c7c3b92560405160405180910390a45050565b600061110782610fcf565b611146576040517f08c379a000000000000000000000000000000000000000000000000000000000815260040161113d9061286b565b60405180910390fd5b600061115183610906565b90508073ffffffffffffffffffffffffffffffffffffffff168473ffffffffffffffffffffffffffffffffffffffff1614806111c057508373ffffffffffffffffffffffffffffffffffffffff166111a8846104c7565b73ffffffffffffffffffffffffffffffffffffffff16145b806111d157506111d08185610e59565b5b91505092915050565b8273ffffffffffffffffffffffffffffffffffffffff166111fa82610906565b73ffffffffffffffffffffffffffffffffffffffff1614611250576040517f08c379a00000000000000000000000000000000000000000000000000000000081526004016112479061292b565b60405180910390fd5b600073ffffffffffffffffffffffffffffffffffffffff168273ffffffffffffffffffffffffffffffffffffffff1614156112c0576040517f08c379a00000000000000000000000000000000000000000000000000000000081526004016112b79061282b565b60405180910390fd5b6112cb83838361188e565b6112d6600082611043565b6001600360008573ffffffffffffffffffffffffffffffffffffffff1673ffffffffffffffffffffffffffffffffffffffff16815260200190815260200160002060008282546113269190612b81565b925050819055506001600360008473ffffffffffffffffffffffffffffffffffffffff1673ffffffffffffffffffffffffffffffffffffffff168152602001908152602001600020600082825461137d9190612afa565b92505081905550816002600083815260200190815260200160002060006101000a81548173ffffffffffffffffffffffffffffffffffffffff021916908373ffffffffffffffffffffffffffffffffffffffff160217905550808273ffffffffffffffffffffffffffffffffffffffff168473ffffffffffffffffffffffffffffffffffffffff167fddf252ad1be2c89b69c2b068fc378daa952ba7f163c4a11628f55a4df523b3ef60405160405180910390a4505050565b6114418484846111da565b61144d848484846119a2565b61148c576040517f08c379a0000000000000000000000000000000000000000000000000000000008152600401611483906127eb565b60405180910390fd5b50505050565b606060405180602001604052806000815250905090565b606060008214156114f1576040518060400160405280600181526020017f30000000000000000000000000000000000000000000000000000000000000008152509050611651565b600082905060005b6000821461152357808061150c90612cce565b915050600a8261151c9190612b50565b91506114f9565b60008167ffffffffffffffff811115611565577f4e487b7100000000000000000000000000000000000000000000000000000000600052604160045260246000fd5b6040519080825280601f01601f1916602001820160405280156115975781602001600182028036833780820191505090505b5090505b6000851461164a576001826115b09190612b81565b9150600a856115bf9190612d17565b60306115cb9190612afa565b60f81b818381518110611607577f4e487b7100000000000000000000000000000000000000000000000000000000600052603260045260246000fd5b60200101907effffffffffffffffffffffffffffffffffffffffffffffffffffffffffffff1916908160001a905350600a856116439190612b50565b945061159b565b8093505050505b919050565b600073ffffffffffffffffffffffffffffffffffffffff168273ffffffffffffffffffffffffffffffffffffffff1614156116c6576040517f08c379a00000000000000000000000000000000000000000000000000000000081526004016116bd906128eb565b60405180910390fd5b6116cf81610fcf565b1561170f576040517f08c379a00000000000000000000000000000000000000000000000000000000081526004016117069061280b565b60405180910390fd5b61171b6000838361188e565b6001600360008473ffffffffffffffffffffffffffffffffffffffff1673ffffffffffffffffffffffffffffffffffffffff168152602001908152602001600020600082825461176b9190612afa565b92505081905550816002600083815260200190815260200160002060006101000a81548173ffffffffffffffffffffffffffffffffffffffff021916908373ffffffffffffffffffffffffffffffffffffffff160217905550808273ffffffffffffffffffffffffffffffffffffffff16600073ffffffffffffffffffffffffffffffffffffffff167fddf252ad1be2c89b69c2b068fc378daa952ba7f163c4a11628f55a4df523b3ef60405160405180910390a45050565b60007f01ffc9a7000000000000000000000000000000000000000000000000000000007bffffffffffffffffffffffffffffffffffffffffffffffffffffffff1916827bffffffffffffffffffffffffffffffffffffffffffffffffffffffff1916149050919050565b611899838383611b39565b600073ffffffffffffffffffffffffffffffffffffffff168373ffffffffffffffffffffffffffffffffffffffff1614156118dc576118d781611b3e565b61191b565b8173ffffffffffffffffffffffffffffffffffffffff168373ffffffffffffffffffffffffffffffffffffffff161461191a576119198382611b87565b5b5b600073ffffffffffffffffffffffffffffffffffffffff168273ffffffffffffffffffffffffffffffffffffffff16141561195e5761195981611cf4565b61199d565b8273ffffffffffffffffffffffffffffffffffffffff168273ffffffffffffffffffffffffffffffffffffffff161461199c5761199b8282611e37565b5b5b505050565b60006119c38473ffffffffffffffffffffffffffffffffffffffff16611eb6565b15611b2c578373ffffffffffffffffffffffffffffffffffffffff1663150b7a026119ec61103b565b8786866040518563ffffffff1660e01b8152600401611a0e9493929190612720565b602060405180830381600087803b158015611a2857600080fd5b505af1925050508015611a5957506040513d601f19601f82011682018060405250810190611a569190612275565b60015b611adc573d8060008114611a89576040519150601f19603f3d011682016040523d82523d6000602084013e611a8e565b606091505b50600081511415611ad4576040517f08c379a0000000000000000000000000000000000000000000000000000000008152600401611acb906127eb565b60405180910390fd5b805181602001fd5b63150b7a0260e01b7bffffffffffffffffffffffffffffffffffffffffffffffffffffffff1916817bffffffffffffffffffffffffffffffffffffffffffffffffffffffff191614915050611b31565b600190505b949350505050565b505050565b6008805490506009600083815260200190815260200160002081905550600881908060018154018082558091505060019003906000526020600020016000909190919091505550565b60006001611b94846109b8565b611b9e9190612b81565b9050600060076000848152602001908152602001600020549050818114611c83576000600660008673ffffffffffffffffffffffffffffffffffffffff1673ffffffffffffffffffffffffffffffffffffffff168152602001908152602001600020600084815260200190815260200160002054905080600660008773ffffffffffffffffffffffffffffffffffffffff1673ffffffffffffffffffffffffffffffffffffffff168152602001908152602001600020600084815260200190815260200160002081905550816007600083815260200190815260200160002081905550505b6007600084815260200190815260200160002060009055600660008573ffffffffffffffffffffffffffffffffffffffff1673ffffffffffffffffffffffffffffffffffffffff16815260200190815260200160002060008381526020019081526020016000206000905550505050565b60006001600880549050611d089190612b81565b9050600060096000848152602001908152602001600020549050600060088381548110611d5e577f4e487b7100000000000000000000000000000000000000000000000000000000600052603260045260246000fd5b906000526020600020015490508060088381548110611da6577f4e487b7100000000000000000000000000000000000000000000000000000000600052603260045260246000fd5b906000526020600020018190555081600960008381526020019081526020016000208190555060096000858152602001908152602001600020600090556008805480611e1b577f4e487b7100000000000000000000000000000000000000000000000000000000600052603160045260246000fd5b6001900381819060005260206000200160009055905550505050565b6000611e42836109b8565b905081600660008573ffffffffffffffffffffffffffffffffffffffff1673ffffffffffffffffffffffffffffffffffffffff168152602001908152602001600020600083815260200190815260200160002081905550806007600084815260200190815260200160002081905550505050565b600080823b905060008111915050919050565b828054611ed590612c6b565b90600052602060002090601f016020900481019282611ef75760008555611f3e565b82601f10611f1057805160ff1916838001178555611f3e565b82800160010185558215611f3e579182015b82811115611f3d578251825591602001919060010190611f22565b5b509050611f4b9190611f4f565b5090565b5b80821115611f68576000816000905550600101611f50565b5090565b6000611f7f611f7a84612a0b565b6129e6565b905082815260208101848484011115611f9757600080fd5b611fa2848285612c29565b509392505050565b6000611fbd611fb884612a3c565b6129e6565b905082815260208101848484011115611fd557600080fd5b611fe0848285612c29565b509392505050565b600081359050611ff781613293565b92915050565b60008135905061200c816132aa565b92915050565b600081359050612021816132c1565b92915050565b600081519050612036816132c1565b92915050565b600082601f83011261204d57600080fd5b813561205d848260208601611f6c565b91505092915050565b600082601f83011261207757600080fd5b8135612087848260208601611faa565b91505092915050565b60008135905061209f816132d8565b92915050565b6000602082840312156120b757600080fd5b60006120c584828501611fe8565b91505092915050565b600080604083850312156120e157600080fd5b60006120ef85828601611fe8565b925050602061210085828601611fe8565b9150509250929050565b60008060006060848603121561211f57600080fd5b600061212d86828701611fe8565b935050602061213e86828701611fe8565b925050604061214f86828701612090565b9150509250925092565b6000806000806080858703121561216f57600080fd5b600061217d87828801611fe8565b945050602061218e87828801611fe8565b935050604061219f87828801612090565b925050606085013567ffffffffffffffff8111156121bc57600080fd5b6121c88782880161203c565b91505092959194509250565b600080604083850312156121e757600080fd5b60006121f585828601611fe8565b925050602061220685828601611ffd565b9150509250929050565b6000806040838503121561222357600080fd5b600061223185828601611fe8565b925050602061224285828601612090565b9150509250929050565b60006020828403121561225e57600080fd5b600061226c84828501612012565b91505092915050565b60006020828403121561228757600080fd5b600061229584828501612027565b91505092915050565b6000602082840312156122b057600080fd5b600082013567ffffffffffffffff8111156122ca57600080fd5b6122d684828501612066565b91505092915050565b6000602082840312156122f157600080fd5b60006122ff84828501612090565b91505092915050565b600061231483836123e8565b905092915050565b61232581612bb5565b82525050565b600061233682612a7d565b6123408185612aab565b93508360208202850161235285612a6d565b8060005b8581101561238e578484038952815161236f8582612308565b945061237a83612a9e565b925060208a01995050600181019050612356565b50829750879550505050505092915050565b6123a981612bc7565b82525050565b60006123ba82612a88565b6123c48185612abc565b93506123d4818560208601612c38565b6123dd81612e04565b840191505092915050565b60006123f382612a93565b6123fd8185612acd565b935061240d818560208601612c38565b61241681612e04565b840191505092915050565b600061242c82612a93565b6124368185612ade565b9350612446818560208601612c38565b61244f81612e04565b840191505092915050565b600061246582612a93565b61246f8185612aef565b935061247f818560208601612c38565b80840191505092915050565b6000612498602b83612ade565b91506124a382612e15565b604082019050919050565b60006124bb603283612ade565b91506124c682612e64565b604082019050919050565b60006124de601c83612ade565b91506124e982612eb3565b602082019050919050565b6000612501602483612ade565b915061250c82612edc565b604082019050919050565b6000612524601983612ade565b915061252f82612f2b565b602082019050919050565b6000612547602c83612ade565b915061255282612f54565b604082019050919050565b600061256a603883612ade565b915061257582612fa3565b604082019050919050565b600061258d602a83612ade565b915061259882612ff2565b604082019050919050565b60006125b0602983612ade565b91506125bb82613041565b604082019050919050565b60006125d3602083612ade565b91506125de82613090565b602082019050919050565b60006125f6602c83612ade565b9150612601826130b9565b604082019050919050565b6000612619602983612ade565b915061262482613108565b604082019050919050565b600061263c602f83612ade565b915061264782613157565b604082019050919050565b600061265f602183612ade565b915061266a826131a6565b604082019050919050565b6000612682603183612ade565b915061268d826131f5565b604082019050919050565b60006126a5602c83612ade565b91506126b082613244565b604082019050919050565b6126c481612c1f565b82525050565b60006126d6828461245a565b915081905092915050565b60006126ed828561245a565b91506126f9828461245a565b91508190509392505050565b600060208201905061271a600083018461231c565b92915050565b6000608082019050612735600083018761231c565b612742602083018661231c565b61274f60408301856126bb565b818103606083015261276181846123af565b905095945050505050565b60006020820190508181036000830152612786818461232b565b905092915050565b60006020820190506127a360008301846123a0565b92915050565b600060208201905081810360008301526127c38184612421565b905092915050565b600060208201905081810360008301526127e48161248b565b9050919050565b60006020820190508181036000830152612804816124ae565b9050919050565b60006020820190508181036000830152612824816124d1565b9050919050565b60006020820190508181036000830152612844816124f4565b9050919050565b6000602082019050818103600083015261286481612517565b9050919050565b600060208201905081810360008301526128848161253a565b9050919050565b600060208201905081810360008301526128a48161255d565b9050919050565b600060208201905081810360008301526128c481612580565b9050919050565b600060208201905081810360008301526128e4816125a3565b9050919050565b60006020820190508181036000830152612904816125c6565b9050919050565b60006020820190508181036000830152612924816125e9565b9050919050565b600060208201905081810360008301526129448161260c565b9050919050565b600060208201905081810360008301526129648161262f565b9050919050565b6000602082019050818103600083015261298481612652565b9050919050565b600060208201905081810360008301526129a481612675565b9050919050565b600060208201905081810360008301526129c481612698565b9050919050565b60006020820190506129e060008301846126bb565b92915050565b60006129f0612a01565b90506129fc8282612c9d565b919050565b6000604051905090565b600067ffffffffffffffff821115612a2657612a25612dd5565b5b612a2f82612e04565b9050602081019050919050565b600067ffffffffffffffff821115612a5757612a56612dd5565b5b612a6082612e04565b9050602081019050919050565b6000819050602082019050919050565b600081519050919050565b600081519050919050565b600081519050919050565b6000602082019050919050565b600082825260208201905092915050565b600082825260208201905092915050565b600082825260208201905092915050565b600082825260208201905092915050565b600081905092915050565b6000612b0582612c1f565b9150612b1083612c1f565b9250827fffffffffffffffffffffffffffffffffffffffffffffffffffffffffffffffff03821115612b4557612b44612d48565b5b828201905092915050565b6000612b5b82612c1f565b9150612b6683612c1f565b925082612b7657612b75612d77565b5b828204905092915050565b6000612b8c82612c1f565b9150612b9783612c1f565b925082821015612baa57612ba9612d48565b5b828203905092915050565b6000612bc082612bff565b9050919050565b60008115159050919050565b60007fffffffff0000000000000000000000000000000000000000000000000000000082169050919050565b600073ffffffffffffffffffffffffffffffffffffffff82169050919050565b6000819050919050565b82818337600083830152505050565b60005b83811015612c56578082015181840152602081019050612c3b565b83811115612c65576000848401525b50505050565b60006002820490506001821680612c8357607f821691505b60208210811415612c9757612c96612da6565b5b50919050565b612ca682612e04565b810181811067ffffffffffffffff82111715612cc557612cc4612dd5565b5b80604052505050565b6000612cd982612c1f565b91507fffffffffffffffffffffffffffffffffffffffffffffffffffffffffffffffff821415612d0c57612d0b612d48565b5b600182019050919050565b6000612d2282612c1f565b9150612d2d83612c1f565b925082612d3d57612d3c612d77565b5b828206905092915050565b7f4e487b7100000000000000000000000000000000000000000000000000000000600052601160045260246000fd5b7f4e487b7100000000000000000000000000000000000000000000000000000000600052601260045260246000fd5b7f4e487b7100000000000000000000000000000000000000000000000000000000600052602260045260246000fd5b7f4e487b7100000000000000000000000000000000000000000000000000000000600052604160045260246000fd5b6000601f19601f8301169050919050565b7f455243373231456e756d657261626c653a206f776e657220696e646578206f7560008201527f74206f6620626f756e6473000000000000000000000000000000000000000000602082015250565b7f4552433732313a207472616e7366657220746f206e6f6e20455243373231526560008201527f63656976657220696d706c656d656e7465720000000000000000000000000000602082015250565b7f4552433732313a20746f6b656e20616c7265616479206d696e74656400000000600082015250565b7f4552433732313a207472616e7366657220746f20746865207a65726f2061646460008201527f7265737300000000000000000000000000000000000000000000000000000000602082015250565b7f4552433732313a20617070726f766520746f2063616c6c657200000000000000600082015250565b7f4552433732313a206f70657261746f7220717565727920666f72206e6f6e657860008201527f697374656e7420746f6b656e0000000000000000000000000000000000000000602082015250565b7f4552433732313a20617070726f76652063616c6c6572206973206e6f74206f7760008201527f6e6572206e6f7220617070726f76656420666f7220616c6c0000000000000000602082015250565b7f4552433732313a2062616c616e636520717565727920666f7220746865207a6560008201527f726f206164647265737300000000000000000000000000000000000000000000602082015250565b7f4552433732313a206f776e657220717565727920666f72206e6f6e657869737460008201527f656e7420746f6b656e0000000000000000000000000000000000000000000000602082015250565b7f4552433732313a206d696e7420746f20746865207a65726f2061646472657373600082015250565b7f4552433732313a20617070726f76656420717565727920666f72206e6f6e657860008201527f697374656e7420746f6b656e0000000000000000000000000000000000000000602082015250565b7f4552433732313a207472616e73666572206f6620746f6b656e2074686174206960008201527f73206e6f74206f776e0000000000000000000000000000000000000000000000602082015250565b7f4552433732314d657461646174613a2055524920717565727920666f72206e6f60008201527f6e6578697374656e7420746f6b656e0000000000000000000000000000000000602082015250565b7f4552433732313a20617070726f76616c20746f2063757272656e74206f776e6560008201527f7200000000000000000000000000000000000000000000000000000000000000602082015250565b7f4552433732313a207472616e736665722063616c6c6572206973206e6f74206f60008201527f776e6572206e6f7220617070726f766564000000000000000000000000000000602082015250565b7f455243373231456e756d657261626c653a20676c6f62616c20696e646578206f60008201527f7574206f6620626f756e64730000000000000000000000000000000000000000602082015250565b61329c81612bb5565b81146132a757600080fd5b50565b6132b381612bc7565b81146132be57600080fd5b50565b6132ca81612bd3565b81146132d557600080fd5b50565b6132e181612c1f565b81146132ec57600080fd5b5056fea264697066735822122089a5df9390901b5650b73fc277a0e88ad8975c7789ddc2c4ab4a6f460d64d05964736f6c63430008040033",
  "immutableReferences": {},
  "source": "// SPDX-License-Identifier: MIT\r\npragma solidity >=0.4.22 <0.9.0;\r\n\r\nimport \"@openzeppelin/contracts/token/ERC721/extensions/ERC721Enumerable.sol\";\r\n\r\ncontract Colour is ERC721Enumerable {\r\n    string[] private _colours;\r\n\r\n    constructor() ERC721(\"Colour\", \"COLOUR\") {\r\n    }\r\n\r\n    mapping(string => bool) private _colourExists;\r\n\r\n    function getColours() public view returns (string[] memory) {\r\n        return _colours;\r\n    }\r\n\r\n    function mint(string memory _colour) public {\r\n        require(!_colourExists[_colour]);\r\n\r\n        _colours.push(_colour);\r\n\r\n        uint _id = _colours.length - 1;\r\n\r\n        _mint(msg.sender, _id);\r\n\r\n        _colourExists[_colour] = true;\r\n    }\r\n}",
  "sourcePath": "C:\\Users\\cesar\\Documents\\Projects\\blockchain\\blockchain-colours\\contracts\\Colour.sol",
  "compiler": {
    "name": "solc",
    "version": "0.8.4+commit.c7e474f2.Emscripten.clang"
  },
  "schemaVersion": "3.4.2",
  "updatedAt": "2021-08-04T03:27:36.731Z",
  "networkType": "ethereum",
  "devdoc": {
    "kind": "dev",
    "methods": {
      "approve(address,uint256)": {
        "details": "See {IERC721-approve}."
      },
      "balanceOf(address)": {
        "details": "See {IERC721-balanceOf}."
      },
      "getApproved(uint256)": {
        "details": "See {IERC721-getApproved}."
      },
      "isApprovedForAll(address,address)": {
        "details": "See {IERC721-isApprovedForAll}."
      },
      "name()": {
        "details": "See {IERC721Metadata-name}."
      },
      "ownerOf(uint256)": {
        "details": "See {IERC721-ownerOf}."
      },
      "safeTransferFrom(address,address,uint256)": {
        "details": "See {IERC721-safeTransferFrom}."
      },
      "safeTransferFrom(address,address,uint256,bytes)": {
        "details": "See {IERC721-safeTransferFrom}."
      },
      "setApprovalForAll(address,bool)": {
        "details": "See {IERC721-setApprovalForAll}."
      },
      "supportsInterface(bytes4)": {
        "details": "See {IERC165-supportsInterface}."
      },
      "symbol()": {
        "details": "See {IERC721Metadata-symbol}."
      },
      "tokenByIndex(uint256)": {
        "details": "See {IERC721Enumerable-tokenByIndex}."
      },
      "tokenOfOwnerByIndex(address,uint256)": {
        "details": "See {IERC721Enumerable-tokenOfOwnerByIndex}."
      },
      "tokenURI(uint256)": {
        "details": "See {IERC721Metadata-tokenURI}."
      },
      "totalSupply()": {
        "details": "See {IERC721Enumerable-totalSupply}."
      },
      "transferFrom(address,address,uint256)": {
        "details": "See {IERC721-transferFrom}."
      }
    },
    "version": 1
  },
  "userdoc": {
    "kind": "user",
    "methods": {},
    "version": 1
  }
}